:10000000C022002009220000052200000522000075
:1000100000000000000000000000000000000000E0
:1000200000000000000000000000000005220000A9
:100030000000000000000000052200000522000072
:100040000522000005220000052200000522000014
:100050000522000005220000052200000522000004
:1000600005220000750300008503000095030000D1
:10007000A5030000B5030000C50300000522000031
:100080000522000005220000ED050000FD0500002E
:100090000D06000000000000000000000522000026
:1000A00005220000052200000522000005220000B4
:1000B0000000000010B5064C2378002B07D1054B3B
:1000C000002B02D0044800E000BF0123237010BDC4
:1000D0001800002000000000D0290000084B10B5D7
:1000E000002B03D00749084800E000BF0748036819
:1000F000002B00D110BD064B002BFBD09847F9E731
:10010000000000001C000020D0290000D0290000C1
:100110000000000030B583B00400500FD900014347
:10012000D00001220023009201932200054DA84730
:10013000089A099B00920193220006980799A84704
:1001400003B030BD010A0000D0B584B00522002301
:1001500000920193043A01204042FF21314B98471D
:1001600003260027029603972F4A0023009201934B
:100170000222002301202D4CA04702960397C8229B
:100180001204002300920193012200230120A047C2
:1001900027498022D2020B6A1342FCD10326002792
:1001A00002960397802212030023009201930122FA
:1001B000002301201D4CA04705220023009201933B
:1001C000002201204042FF21164B984702960397D8
:1001D000154A002300920193022200230020A04729
:1001E00002960397C8221204002300920193012271
:1001F00000230020A0470E498022D2020B6A13423E
:10020000FCD10322002302920393802212030023D5
:10021000009201930122002300200449884704B082
:10022000D0BDC046010A00005701C0001501000002
:100230000044004130B583B00500069C0020002139
:1002400020606160500FD9000143D200402010436C
:1002500001220023009201932A00054B9847089A37
:10026000099B29002000034CA04703B030BDC046C5
:10027000010A0000810B000070B50B4A1400703CAD
:1002800013009D6EDE6E1D675E67083BA342F8D1CA
:10029000054B1860596070339468D568001969413E
:1002A00008329A42F8D170BDC000002030B587B046
:1002B00004000022002304920593032200230292EB
:1002C000039304AB0093032200230C498847E30007
:1002D0000B49C918049A059B08684968094DA84745
:1002E000002C02D10490059104E0002342428B418E
:1002F000049205930498059907B030BD35020000BB
:10030000000000200D2600007047C046F0B50A4BE3
:100310001B78002B0CD1094F094E0A4D0024DE51E9
:100320005A1914600433182BF9D10122024B1A70A8
:100330008000024BC150F0BD340000203800002086
:10034000090300007802002010B582B004000622E4
:1003500005496846054B98472000054B98476B4672
:10036000185602B010BDC0461C290000F928000034
:10037000D913000010B5024B1B680020984710BD30
:100380003800002010B5024B5B680120984710BD73
:100390003800002010B5024B9B680220984710BD22
:1003A0003800002010B5024BDB680320984710BDD1
:1003B0003800002010B5024B1B690420984710BD7F
:1003C0003800002010B5024B5B690520984710BD2E
:1003D00038000020F8B58000604BC5582C68E369F0
:1003E000002BFCD1237EA67D1E403023EB5C312206
:1003F000AF5C1F40F30722D5EB8D9BB2002B1CD0C6
:10040000AA6A1378DBB2511CA9626979012901D06B
:100410009BB204E0517809020B430232AA62DB0569
:10042000DB0D2385EB8D013B9BB2EB85002B06D1C9
:10043000013323750133A37501E001232375B3074D
:1004400009D50223237500223133EA54FB0702D574
:100450002800EB689847730760D5AB8D9BB2002BE3
:100460005AD0638BDBB21A0702D43F22134001E05B
:1004700037221340002B2DD09A0705D51A2232239C
:10048000EA54303B63831FE05A0705D51E2232230E
:10049000EA542E3B638317E0DA0705D51322322393
:1004A000EA54313B63830FE0DA0605D5422232235A
:1004B000EA54223B638307E020221A4204D021320F
:1004C0003223EA54123B63837B0727D528006B69EC
:1004D000984723E0238DDB05DB0DDAB2696A0A70E9
:1004E0006A6A511C69626979012904D11B0A537037
:1004F0006B6A01336B62AB8D013B9BB2AB85002B0A
:100500000CD10433237500222E33EA54BB0705D5E2
:1005100028002B69984701E004232375F30607D5CB
:10052000102323752376FB0602D52800EB69984734
:10053000B30607D52023237523763B0702D5280071
:10054000AB699847330707D5082323752376BB0685
:1005500002D52B6A28009847F8BDC04678020020D3
:10056000931C9B001950022A04D1027E10231343CE
:1005700003760BE0032A04D1027E20231343037683
:1005800004E001239340027E13430376002070476A
:1005900070B58000144BC5582B689C7B2B7E1C408B
:1005A0006B7E1C40E30705D52800AB689847012304
:1005B0002A689373A30705D52800EB6898470223A0
:1005C0002A689373E30605D528002B699847102302
:1005D0002A689373A30605D528006B6998472B6892
:1005E00020229A7370BDC0469002002010B50020F2
:1005F000014B984710BDC0469105000010B5012081
:10060000014B984710BDC0469105000010B502206F
:10061000014B984710BDC0469105000030B585B02C
:1006200001AA0B4B32CB32C2019B98420AD0029BEB
:10063000984205D00023039A824205D1023302E09A
:10064000012300E00023DBB2180005B030BDC04636
:1006500024290000F0B54F464646C0B487B00400D8
:100660000E0090460800924B98478146914D290014
:100670000C31032205A8904FB847290010310622FB
:1006800003A8B8470023A360E36023616361237676
:1006900063764B469A00894BD450266043469B783C
:1006A000082B04D117204A46D20700D4FBE023715F
:1006B00033880520DB0700D5F5E0F37B1730DB0638
:1006C00000D5F0E033889B0700D5ECE043461B7C67
:1006D000002B0CD002A901238B700022CA70424665
:1006E000127E0A704B704346187D754B98474346FF
:1006F0001B7F002B0DD002A901238B700022CA7032
:100700004246526A0A704B7043461B6AD8B26C4B21
:1007100098476C490B6A4A46520003A8125A134381
:100720000B6243469B78082B06D10B6A4A4601327E
:100730005200125A13430B6201A943461B780B70F7
:1007400005AB4A469D5C28005F4B984728005F4BED
:100750009847434698789B7902001A434346188984
:100760009B8803431A43100043465B78002B02D05A
:1007700080231B01184321687F22CB7B9343FCD14C
:1007800030804346587B431E9841800043469B7B04
:10079000002B01D00123184321687F22CB7B934398
:1007A000FCD1FF333371002805D021687F22CB7B39
:1007B0009343FCD170714346987ADB7A002B01D0C9
:1007C0001023184343461B7B002B01D020231843E2
:1007D00021687F22CB7B9343FCD1B07122687F21BB
:1007E000D37B8B43FCD12379042B05D0082B41D03C
:1007F0001720002B57D124E07F21D37B8B43FCD1E2
:1008000028334246D35C337421687F22CB7B9343E9
:10081000FCD129334246D35C337521687F22CB7BE0
:100820009343FCD12A334246D35C337621687F223E
:10083000CB7B9343FCD12B334246D35C73760020B1
:1008400031E07F21D37B8B43FCD143461B8D338228
:1008500021687F22CB7B9343FCD143465B8D33835E
:1008600021687F22CB7B9343FCD143469B8D7383CE
:10087000002018E07F21D37B8B43FCD143469B6A49
:10088000336121687F22CB7B9343FCD14346DB6AF3
:10089000B36121687F22CB7B9343FCD143461B6B22
:1008A000F3610020FFE707B00CBC90469946F0BD0D
:1008B0001D06000024290000F928000090020020F5
:1008C000A521000000040040AD2000002120000010
:1008D00010B58EB001246B461C70002301936A464C
:1008E000137453749474D47413750C22002106A8E5
:1008F000334B9847334B069380239B030393324B30
:100900000A93324B0B93324B0C9301235B420D93B2
:10091000C0239B05029324236A46D4542D4C2E49B0
:1009200020002E4B98472E4920002E4B98472268D6
:10093000D369002BFCD1116802330B4313602A4B9F
:10094000802212039A609A6101246B461C70002376
:1009500001936A46137453749474D47413750C22FF
:10096000002106A8164B9847164B069380239B033D
:1009700003931E4B0A931E4B0B931E4B0C930123A8
:100980005B420D93C0239B05029324236A46D454F3
:10099000194C1A492000114B984711492000114B5E
:1009A00098472268D369002BFCD1116802330B43AE
:1009B00013600D4B802212019A609A610EB010BD37
:1009C0000B290000A08601000200100002001100A7
:1009D0000200120038010020000C004299140000AF
:1009E000E0930400151400000044004102000800D8
:1009F0000200090002000A00F40100200008004281
:100A0000F0B55F4656464D464446F0B483B001907B
:100A10000C9E002A53D080221203564B5A61371E77
:100A200042DD013EF600544B9C46012520239A46A8
:100A30000424E0460023994633E01A7E2A42FCD083
:100A4000013F1A7E2A4211D020225242B21803D40A
:100A500008001041020006E05246921B0800904038
:100A6000019AF2400243D205D20D9A621A7E2242C6
:100A7000FCD01A7E224211D05A8B224200D05C83D5
:100A800042469279012A05D19B6ADB05DB0D4A4675
:100A9000138003E09B6ADBB24A461380083E002FB6
:100AA00002D063461B68C8E7334B196801220B7EEE
:100AB0001342FCD0802212032E4B9A6152E0802216
:100AC00012012C4B5A61371E42DD013EF6002B4BC2
:100AD0009C46012520239A460424E046002399469B
:100AE00033E01A7E2A42FCD0013F1A7E2A4211D0FE
:100AF00020225242B21803D408001041020006E03E
:100B00005246921B08009040019AF2400243D205DF
:100B1000D20D9A621A7E2242FCD01A7E224211D055
:100B20005A8B224200D05C8342469279012A05D139
:100B30009B6ADB05DB0D4A46138003E09B6ADBB250
:100B40004A461380083E002F02D063461B68C8E760
:100B50000A4B196801220B7E1342FCD0802212013D
:100B6000044B9A6103B03CBC90469946A246AB4602
:100B7000F0BDC0460044004138010020F4010020CF
:100B8000F0B55F4656464D464446F0B485B0060083
:100B9000002970D07C4980242403086A0869204217
:100BA000FBD080200003784948610C008020C002FF
:100BB000216A0142FCD11100194351D073498A4680
:100BC0000127002188460431D44620208346002492
:100BD00000250294039550460068047E3C42FCD0F8
:100BE000047E3C4201D044468462047E0C42FCD028
:100BF000047E0C4211D0448B0C4200D041836446E9
:100C0000A479012C05D1806AC005C00D02AC2080FA
:100C100003E0806AC0B202AC20805D481018C000BA
:100C200020246442041903D4029DA5402C0006E050
:100C30005C46241A029DE540039C84402C43029D9F
:100C4000854028003568284330607068044374602C
:100C500001246442E51712196B4110001843B6D104
:100C60004C4B196801220B7E1342FCD080221203E8
:100C7000454B9A6181E0444980242401086A08694F
:100C80002042FBD0802000013F4948610C008020B9
:100C9000C000216A0142FCD11100194363D03D4DCF
:100CA000012400218B460420B046009201930022CB
:100CB00000230292039329684646009A019B0F7E07
:100CC0002742FCD0B046009201930F7E274201D00C
:100CD0005B468B624646009A019B0F7E0742FCD022
:100CE000B046009201930F7E074211D04F8B07420E
:100CF00000D04883274B9F79012F05D1896AC90508
:100D0000C90D02AB198003E0896AC9B202AB198030
:100D10001F4B009AD118C90020235B42CF1803D47F
:100D2000029BBB401F0006E020235F1A029BFB4092
:100D3000039F8F401F43029B8B40190043461B6853
:100D40001943434619605B681F4343465F600122B5
:100D50005242D317009E019FB6185F41009601973B
:100D600031003943A3D10B4B196801220B7E13428A
:100D7000FCD080221201044B9A6105B03CBC904625
:100D80009946A246AB46F0BD004400413801002020
:100D9000FFFFFF1FF401002010B501210148024BA5
:100DA000984710BD10000020310F000010B58EB024
:100DB00001AA0023002193711381002050709172C9
:100DC000D1721173917351731174536193611177DF
:100DD0001362536213855385938504339370023BEA
:100DE00013708023DB00938032212923D154084CD7
:100DF00008492000084B984722687F21D37B8B430A
:100E0000FCD1118802330B4313800EB010BDC046D5
:100E10009C020020002C00425506000010B50C4C2E
:100E200000220C4920000C4B984720680B4B984738
:100E30000B4B1B5C1F2213401E3A11009940094BBB
:100E40001960617E01230B43637623685A7310BDDA
:100E50009C020020990D0000610500001D060000A5
:100E60003C29000000E100E0014B18707047C046CB
:100E70001000002030B591B08023DB0500930023E3
:100E80000193FF2269460A8100228B72CB72962160
:100E900089010891012124206C46215401302154FC
:100EA00025316354013163540A9305316354013190
:100EB000635405932382E3762276227762761323A6
:100EC000A376627780235B030393124B0C93124B40
:100ED0000D9301235B420E930F93104D104C6A4605
:100EE00010492800A0470028F9D10C4D2C6820009B
:100EF0000D4B98471F2318401E3B83400B4A13603D
:100F00002A68D369002BFCD1226802331343236083
:100F100011B030BD03002200030023008800002030
:100F2000B9170000001C00424903000000E100E086
:100F300010B50A0001000248024B984710BDC04698
:100F4000880000208D1B00000C4B1B68002B10D16B
:100F5000EFF31083002B09D172B6BFF35F8F00222D
:100F6000074B1A700132074B1A7002E00022054B42
:100F70001A70024A13680133136070475000002052
:100F80001100002054000020084B1A68013A1A6032
:100F90001B68002B09D1064B1B78002B05D00122C2
:100FA000044B1A70BFF35F8F62B670475000002089
:100FB0005400002011000020F0B583B001AC0125E1
:100FC00065700027A770257021001620064EB047D7
:100FD0008022D203054B9A612770657021000F2093
:100FE000B04703B0F0BDC046F10F0000004400411F
:100FF00000B583B001AB80221A700A785A704A7823
:101000009A708A78DA701900014B984703B000BDD6
:10101000A521000010B5490840230024814201D2D7
:101020000AE01C00091A631C9BB28842F9D94023CC
:10103000FF2C01D814800023180010BDF0B55F46C6
:1010400056464D464446F0B489B00C00059212AAAB
:10105000117802004A434025A24200D9C6E0002B85
:1010600051D1020008000021644DA84783462600A4
:1010700000270023002400930194002200233F2036
:1010800020218C461F3902960397202464420419BC
:1010900003D40D00A540A84604E06446241A0D00C0
:1010A000E540A8460C008440A14614001D00A41889
:1010B0005D4122002B0046465F463E4203D00E00B3
:1010C000264332002B00029C039D9D420FD801D184
:1010D00094420CD8029C039D121BAB414D46009ECE
:1010E000019F35433C004646344300950194013846
:1010F000CBD20022012300980199121A8B41120CC5
:101100001B041A436FE00022012B6CD1630F049380
:10111000E30098460A0000230021384CA047040051
:101120000D0000239C46069320339B460126634610
:10113000079300230293002200233F21009401958E
:101140000F0020214942791803D43000884084469A
:1011500004E05946C91B3000C84084463100B940FC
:101160008946100019008018594102000B004446BE
:101170004D462C40A2466446049D2C40A44654464D
:1011800065462C4303D03400044322000B00009832
:10119000019999420AD801D1904207D80098019943
:1011A000121A8B410299484601430291013FC8D26D
:1011B000009C019D0299079A8B1ADB0810498B420B
:1011C0000BD9069B0133DBB21900069313000133E0
:1011D00007930829ADD1402508E04025069A082A42
:1011E00004D052031A43059B1A800025280009B039
:1011F0003CBC90469946A246AB46F0BD0D26000089
:10120000FF1F000010B582B004000E4B1B78002BAE
:1012100001D000290DD001A90C7013200A4B98476A
:1012200013200A4B9847074B5C7001221A7000206C
:1012300006E0044B5B78834201D01D2000E00020D3
:1012400002B010BD58000020AD2000002120000099
:10125000444B984233D006D8434B98420DD0434B71
:1012600098421BD06FE0424B98424AD0414B984283
:1012700058D0414B984266D132E0012906D000296E
:1012800063D0022906D0032906D001E03B4867E07D
:10129000002065E03A4863E03A4861E0012906D061
:1012A000002954D0022906D0032906D001E036488F
:1012B00056E0002054E0354852E0354850E001291E
:1012C00006D0002945D0022906D0032906D001E026
:1012D000304845E0002043E02F4841E02F483FE000
:1012E000012906D0002936D0022906D0032906D0CC
:1012F00001E02B4834E0002032E02A4830E02A4860
:101300002EE0012906D0002927D0022906D0032982
:1013100006D001E0254823E0002021E024481FE01A
:1013200024481DE0012906D0002918D0022906D042
:10133000032906D001E0204812E0002010E01F48F9
:101340000EE01F480CE000200AE01E4808E00320E1
:1013500006E01D4804E01D4802E01D4800E01D486D
:101360007047C0460010004200080042000C0042D6
:1013700000180042001C0042001400420300050057
:1013800003000600030007000300010003001E0025
:1013900003001F000300090003000A0003000B0004
:1013A00003001100030012000300130003000D00EE
:1013B00003000E0003000F000300170003001800D5
:1013C00003001900030004000300080003001000DC
:1013D00003000C000300160030B587B00C4B6A46C2
:1013E00032CB32C232CB32C2009B834206D00123C1
:1013F0009A0069465258824203D100E00023D8B2D5
:1014000003E00133062BF3D1002007B030BDC04606
:101410004029000070B582B006000D0000226B4626
:10142000DA800468E369002BFCD18F3323752376BF
:1014300023680222934323603068C369002BFCD1E8
:10144000124B98471430C0B2114B984701006B46BD
:101450009A1D28000F4B98471723002812D16B467E
:1014600006331B7823733368DA69002AFCD1DA6902
:10147000002AFCD1196802320A431A603268D36923
:10148000002BFCD1180002B070BDC046D91300007B
:10149000C920000015100000F0B557464E464546DD
:1014A000E0B488B080460E001400030019600B6899
:1014B0009B0700D4A6E0936A0393D36A0493136B4B
:1014C0000593536B069300271F239946F9B2BB007F
:1014D00003AA9858002802D13000AC4B9847431C0F
:1014E00027D00204130C9C46000CC1B20025030651
:1014F00003D44B09DB01A64A9D184B460B40E81864
:1015000040300078824680205246D2070AD55B08D8
:10151000EB1830331878C0B2CB0701D5000901E0D1
:101520000F231840844504D00023424613601C203A
:1015300026E10137042FC9D11320964B9847237811
:101540000027012B12D102AA0100A069924B9847F3
:1015500003001720002B00D012E1337BDBB202AA7C
:10156000127805309A4200D00AE10C372578002D18
:1015700014D13268E37F1B04A17F0B431C209342EC
:1015800000D0FDE0A169A38B2022A25C002A01D03B
:101590004022134308220A43174300E000236268F5
:1015A000A1680A43E1680A433A43217C0B43617C0A
:1015B000002901D080210A43A17C002902D080218A
:1015C00089020B43E17C002902D0802189000B4372
:1015D000217D002902D0802189010B43306802213E
:1015E0000A43824209D172689A4206D143465D712C
:1015F000237C424693710020C2E0002342461360E0
:101600001C20BDE00B680520DB0700D5B8E0080012
:10161000624B984762490A6A851C0123AB40134319
:101620000B6207A92427E35D0B701430C5B22800B4
:101630005C4B984728005C4B9847E05D00215B4B72
:1016400098472378012B03D132680B33134333605F
:101650002378002B03D132680833134333604346A9
:101660001E6802AB80221A7000225A700121997004
:10167000DA702378002B01D102AB9A70A36A03932E
:10168000E36A0493236B0593636B0693002702AD13
:10169000F9B2BB0003AA9858002802D130003B4B96
:1016A0009847431C05D02870000CC0B22900404B5D
:1016B00098470137042FEBD1237842465371237C9E
:1016C0009371A37CD371237D137200226B46DA8061
:1016D0002378012B15D143461868304B98471430B6
:1016E000C0B22C4B984701006B469A1DA0692A4B4B
:1016F000984703001720002B42D16B4606331B7816
:1017000033732378002B0FD1A769A38B706AE17F15
:101710000904A57F2943014371622022A25C002AAB
:1017200004D040210B4301E0002300276268A16838
:101730000A43E1680A433A43217C0B43617C002958
:1017400003D11C498978890701D580210A43A17CEE
:10175000002902D0802189020B43E17C002902D0BC
:10176000802189000B43217D002902D0802189013D
:101770000B4331680A433260726813437360002080
:1017800008B01CBC90469946A246F0BD511200001C
:1017900000440041C920000015100000D9130000CA
:1017A00000040040AD2000002120000005120000D0
:1017B000A521000000200041F0B55F4656464D4689
:1017C0004446F0B491B005000C00160029600800F2
:1017D000B94B984722680523D20700D564E12268F7
:1017E0001733920700D55FE1B4490A6A871C1B3B97
:1017F000BB4013430B620FA92D27F35D0B70143010
:10180000C3B202931800AE4B98470298AD4B98476D
:10181000F05D0021AC4B9847F37A6B712423F35CA5
:10182000AB712523F35CEB71F37E2B72337F6B720C
:101830002B6899461800A04B9847143000220E23BD
:1018400006A98C4663441A80328A02928023DB0107
:101850009A421AD004D880239B019A420BD004E10B
:10186000C023DB01029A9A420AD080231B029A42CB
:1018700000D1FFE0F9E0102306930F3B0793FDE052
:1018800008230693073B0793F8E033680493F36853
:101890009B4673690393337E98462623F35C059336
:1018A00073689A46002B15D080235B059A4536D184
:1018B0002723F35C002B36D1336A1F00C0B2834B61
:1018C000984701000E2206AB9C4662443800804BCC
:1018D000984725E008230693002307932723F35C0A
:1018E000002B0BD0069B0093079B0E2206A98C466B
:1018F0006244B16A306A774FB84711E0336A1F001B
:10190000C0B2724B98470100069B0093079B0E22C2
:1019100006A88446624438006E4FB84700E00020B5
:10192000031E00D0C0E0737E002B02D0B37E4A4677
:1019300093732A68029FD369002BFCD10E3306AA49
:10194000944663441B884A469381049B5A4613433A
:10195000039A1343524613433B4342461202134336
:10196000059A57071F432723F35C002B01D104334B
:101970001F43717E8902337F5B021943737F1B0211
:1019800019432423F35C5B0419432523F25C1204FE
:101990001143F37A19433389FF2B04D08022520478
:1019A0001743194305E0F37E002B02D08023DB04AC
:1019B0001F432C23F35C002B03D1474B9B789B07E1
:1019C00001D580231F432A68D369002BFCD14B46E5
:1019D00059602A68D369002BFCD14B461F600EABBF
:1019E00080221A7000225A70DA709A70336B0A9350
:1019F000736B0B93B36B0C93F36B02930D930027F4
:101A00000EAEF9B2BB000AAA9858002802D12000F5
:101A1000324B9847431C05D03070000CC0B23100E7
:101A20002F4B98470137042FEBD10023EB602B613C
:101A30006B61AB61EB612B62AB626B620022EB8589
:101A4000AB853033EA540133EA540133EA540133AD
:101A5000EA542868184B984704002249224B9847BB
:101A6000A400224BE55000231EE010230693002320
:101A7000079303E00323069300230793336804933B
:101A8000F3689B4673690393337E98462623F35C81
:101A9000059373689A46002B00D11FE780235B05EE
:101AA0009A4500D104E73EE7180011B03CBC9046CF
:101AB0009946A246AB46F0BDD91300000004004091
:101AC000AD2000002120000005120000C920000008
:101AD000151000003D1000000020004151120000D0
:101AE000A5210000D50300000D03000078020020AE
:101AF000C2791C23002A0ED0C28D92B2173B002A55
:101B000009D10368DA69002AFCD1198502211A7EFD
:101B10000A42FCD0002318007047C04682791C237B
:101B2000002A30D0828D92B2173B002A2BD1026856
:101B3000107E400727D5D369002BFCD1538BDBB235
:101B400098061DD0980703D50223538318331AE053
:101B5000580703D5042353831A3314E0D80703D559
:101B60000123538312330EE0D80603D51023538389
:101B7000323308E09B0603D520235383213302E050
:101B8000138D0B80002318007047C046F0B54F46F8
:101B900080B482B0040001911720002A49D0E37973
:101BA0000530002B45D02768FB69002BFCD19146FE
:101BB0000025012620E03A7E324204D1012B2AD0B2
:101BC000013B002BF7D16A1C92B2019B5B5D6179EE
:101BD000012902D099B2150005E0A91C8DB2019926
:101BE000895C090219432000144B98474A46013A80
:101BF00093B29946002B16D03B7E3342E3D1104B73
:101C0000D9E73A7E0A4208D1012B08D0013B002BCC
:101C1000F7D100200DE012200BE0002009E0122097
:101C200007E0002005E03B7E9B07FAD4044B02212D
:101C3000E7E702B004BC9146F0BDC046F11A0000CF
:101C4000FFFF000010B5082803D880001B4B1B586D
:101C50009F46002030E01A4B18692DE0194B1B6A93
:101C60009B059B0F1848D84026E0154B586923E088
:101C7000134B1B68022018401ED012491022CB685B
:101C80001A42FCD00E4B1B685B0714D500200F4B8B
:101C900098470B4B9B681B041B0C58430CE05023CC
:101CA000084AD35C00205B0706D5054BD86803E0E3
:101CB0008020000200E0064810BDC0465829000000
:101CC0005C0000200008004000127A00C9200000DB
:101CD000006CDC0270B50C4C236A01788578427880
:101CE0000120024092014026B343134302002A40E0
:101CF000D2017F308343134303220A401202034977
:101D00000B401343236270BD00080040FFFCFFFF3F
:101D1000082803D88000254B1B589F46172044E015
:101D2000234A116A02230B43136200203DE0204A3C
:101D3000916902230B439361002036E01C4A118A0B
:101D400002230B43138200202FE0194A918A0223B9
:101D50000B439382002028E016490B6802221343AC
:101D60000B60134B9A8419000E32CB681A42FCD0D8
:101D7000104A91680E4BD96252689A6200229A8486
:101D800019001032CB681A42FCD00A4B1B689BB278
:101D9000074A9384002008E005494422885C022316
:101DA00003438B54002000E0002070477C29000092
:101DB000000800405C000020F0B5474680B484B0C5
:101DC000C222D200224B9A60224A53681E218B43C2
:101DD000536002236A46137000241F4DE0B2694627
:101DE000A8470134252CF9D103A80024447001250B
:101DF00085700470194B98470620194B9847194B6A
:101E0000984701956B465C70062398466B464246A0
:101E10001A701C725C7269460120134FB84701208A
:101E2000124EB047124B1C725C729C72DC720195B0
:101E30006B465C7042461A701C725C7269460020E8
:101E4000B8470020B04704B004BC9046F0BDC0467F
:101E50000008004000400041AD200000D51C0000FB
:101E6000111D0000751E0000991E0000511F00008A
:101E700000040040064A916908230B439361012244
:101E8000044B1A7019000B781342FCD17047C046FE
:101E900000040040000C004070B5060005000C78FE
:101EA000240204434B78002B02D08023DB021C4326
:101EB0004B7A002B02D080231B031C434868012867
:101EC00018D9431E184210D1022806D90223002235
:101ED00001325B009842FBD800E00022120232433C
:101EE000150080235B031C4304E005023543802377
:101EF0009B021C430B7A002B02D080239B031C43C4
:101F00000F4A53785BB2002BFBDB0E4B98470E4B0E
:101F10001E700B4A53785BB2002BFBDB084B9D60B5
:101F20001A0053785BB2002BFBDB054A5168802313
:101F30005B020B401C435460044B984770BDC04685
:101F4000000C0040490F0000080C0040890F000001
:101F500010B504000B4A53785BB2002BFBDB0A4B35
:101F600098470A4B1C70074A53785BB2002BFBDB87
:101F7000044A5368802149020B435360044B98473D
:101F800010BDC046000C0040490F0000040C00408A
:101F9000890F000070B504001A4A53785BB2002B19
:101FA000FBDB194B9847194B1C70164A53785BB2F0
:101FB000002BFBDB134E7068C004C00E144B984717
:101FC0000500124B1C707668F602F60F114B1C7060
:101FD0000C4A53785BB2002BFBDB0A4B9C68240253
:101FE000240C0D4B9847002E07D1012C07D9210056
:101FF00028000A4B9847050001E00134E54028001D
:1020000070BDC046000C0040490F0000040C0040A9
:10201000451C0000080C0040890F0000AD240000A2
:1020200010B50400064B9847064B1C70064A5188B1
:102030008023DB010B435380044B984710BDC046FF
:10204000490F0000020C0040000C0040890F000006
:1020500010B504000F4B98470F4B1C700F4B5A885C
:102060001205100F59880E4A0A405A8059880D4AA5
:102070000A405A8019008022D2014B881342FCD1B9
:1020800006494C880202064B234013434B80064B03
:10209000984710BD490F0000020C0040000C0040A2
:1020A000FFF0FFFFFFBFFFFF890F000010B50C78A6
:1020B00024020443024B9847A4B2024B5C8010BD3B
:1020C00051200000000C004010B50400064B98475A
:1020D000064B1C70064B5C882405240F054B984763
:1020E0002000054B984710BD490F0000020C00402E
:1020F000000C0040890F0000951F000030B5D37818
:10210000002B1ED11378802B04D01B068024640280
:10211000234300E0002354780225AC430AD194788D
:10212000002C03D18024A402234302E0C024E40253
:10213000234341605478013C012C12D8184C2340B1
:102140000FE041600B041B0CA024E40523438362D1
:102150000B0CD024240623438362D378002B18D0A1
:102160001CE00C04240CA025ED052C431C438462C8
:102170000C0CD0252D062C431C438462D478002CF3
:102180000CD15B0305D59378012B01D1816100E06F
:1021900041615378013B012B00D8816030BDC046BE
:1021A000FFFFFBFF10B503000A00C1090020002952
:1021B00004D15809C00105498C4660441F210B40D9
:1021C0001E399940024B984710BDC046004400415B
:1021D000FD2000007047C04610B5054B9847054BE1
:1021E0009847054B9847054B9847054B984710BDB6
:1021F000B91D0000B90F0000D5210000D521000055
:10220000D5210000FEE7C04670B52E4B2E4A9A42FB
:1022100003D02E4B2B4A9A4204D32D4B2D4A9A427F
:1022200010D31EE02C4A294B03339B1A9B08013321
:102230009B000022234824498C58845004329A423F
:10224000FAD1EAE7254A224B03339B1A9B08013354
:102250009B0000221F4800211418216004329A427A
:10226000FAD11F4AFF211F4B8B439360FD39902306
:102270005B001D4AD1501D48C3780324A3430222AA
:102280001343C370C3780C26B34308210B43C370B8
:10229000174B987B3025A8430500202028439873CE
:1022A000987BB04301439973997BA1430A439A7386
:1022B000104A516880230B4353600F4B98470F4BD4
:1022C0009847FEE700000020D029000014000020FD
:1022D000BC02002018000020040000201C00002088
:1022E00000ED00E0000000000070004100500041DF
:1022F0000048004100400041AD28000015240000C6
:10230000F0B5474680B4364B1B78002B28D100200F
:102310000021344B18605960334C27007837250072
:10232000324B98462F4E0120C04703C53268736870
:102330008018594130607160BD42F4D122686368F1
:10234000121A8B410CC4BC42F8D10F220023284C36
:10235000A047244B186059600122214B1A703BE0C2
:10236000012B39D10120214B98471E4B1A685B681D
:10237000801A99411F4C206061601F4B9847206074
:102380006160002903DC12D11C4B98420FD91C4B11
:102390001B78002B03D161201A4B98471CE00121C8
:1023A00019481A4B98470022154B1A7014E0014344
:1023B0000FD0134B1B78012B03D16C20114B984786
:1023C0000AE001211248114B984701220C4B1A7068
:1023D00002E065200B4B984704BC9046F0BDC04618
:1023E000B902002080000020C0000020AD020000E3
:1023F000C52500007800002079020000804F1200FF
:10240000B8020020690E0000A0290000310F000072
:10241000A429000070B584B0174B9847174B1A00D9
:1024200078320020002103C39342FCD1144B98471B
:10243000144B9847144B9847144B9847144B9847A4
:102440000123144A1370BFF35F8F62B60021124A52
:102450001170124A1370124E124D134CB047694658
:102460002800A0476B461B785BB2722BF6D1002286
:10247000094B1A70F2E7C046D9210000C0000020C5
:10248000750E0000D108000049010000AD0D0000EC
:102490001D0E000011000020B9020020B80200202B
:1024A00001230000880000201D1B000000224308BB
:1024B0008B4274D303098B425FD3030A8B4244D30C
:1024C000030B8B4228D3030C8B420DD3FF2209024E
:1024D00012BA030C8B4202D31212090265D0030B0D
:1024E0008B4219D300E0090AC30B8B4201D3CB0303
:1024F000C01A5241830B8B4201D38B03C01A524145
:10250000430B8B4201D34B03C01A5241030B8B4246
:1025100001D30B03C01A5241C30A8B4201D3CB0231
:10252000C01A5241830A8B4201D38B02C01A524116
:10253000430A8B4201D34B02C01A5241030A8B4219
:1025400001D30B02C01A5241CDD2C3098B4201D331
:10255000CB01C01A524183098B4201D38B01C01AAF
:10256000524143098B4201D34B01C01A5241030926
:102570008B4201D30B01C01A5241C3088B4201D3D5
:10258000CB00C01A524183088B4201D38B00C01A82
:10259000524143088B4201D34B00C01A5241411AA9
:1025A00000D20146524110467047FFE701B50020B6
:1025B00000F006F802BDC0460029F7D076E7704764
:1025C0007047C046002B15D1002A13D1002906DB25
:1025D00001DC002806D00020C043410802E0802131
:1025E0000906002007B4024801A14018029003BD6B
:1025F000D1FFFFFF03B4684601B5029800F032F83E
:10260000019B9E4602B00CBC7047C046F0B54F46D9
:102610004646C0B41604360C9946330005042C0C0B
:10262000070C150C63437E436F4365431C0CAD19C7
:1026300064199C46A64203D980235B02984647440E
:102640006346250CEF191D044B464A4343432D0CAA
:10265000240464199918C91920000CBC90469946A5
:10266000F0BDC046F0B583B016001F000090019188
:1026700000F014F804000D0002000B0030003900D7
:10268000FFF7C4FF009A019B121A8B4108992000A2
:102690000A604B60290003B0F0BDC046F0B5444667
:1026A0005F4656464D46F0B41C0083B0002900DA60
:1026B00092E00F00002106008A4610001900002C4D
:1026C00000DA80E034003D0081468846B94269D88E
:1026D00066D04146484600F0BFF8834639003000D6
:1026E00000F0BAF85B461B1A9C46203B9B4600D57F
:1026F00086E04946584681400B0049466046814085
:102700000A00BB4200D971E06DD034003D0059464B
:10271000A41A9D41002900DA89E000210020012649
:102720000090019159468E400196614601268E40E7
:1027300061460096002960D0D90756080E435F080D
:102740006146012200230CE0AF4201D1A6420AD823
:10275000A41BBD4124196D410139A4185D41002914
:1027600006D0AF42F0D9013924196D410029F8D1C2
:102770005B460098019900196941002B4CDB2E0043
:10278000DE4063462C00DC405B46002B5ADB340005
:102790009C4023006446A6403200801A994103E021
:1027A000B04296D9002000215346002B04D00300EC
:1027B0000C0000215842A14103B03CBC9046994610
:1027C000A246AB46F0BD5346DB430C009A461300CD
:1027D00000215842A14175E7002746428F4101215F
:1027E00049428A4669E7B14200D88EE700210020BD
:1027F00000900191614600299ED100980199D3E78C
:10280000624640462023494690409B1AD940030027
:10281000009100990B4370E7624620239B1A2A001F
:102820009A40260013006246D6401E43A9E761463F
:1028300020260127761A00200021F7400090019100
:10284000019772E762462023350094409B1ADD40D1
:1028500023002B439EE7C04610B5002903D100F0AA
:1028600007F8203002E0081C00F002F810BDC04656
:102870001C2101231B04984201D3000C10391B0AB0
:10288000984201D3000A08391B09984201D3000974
:10289000043902A2105C40187047C04604030202CB
:1028A0000101010100000000000000000E4B70B5A6
:1028B00000251E000D4CE41AA410A54204D0AB0064
:1028C000F35898470135F8E700F06EF8084B0025FB
:1028D0001E00084CE41AA410A54204D0AB00F35823
:1028E00098470135F8E770BDB4290000B42900000D
:1028F000B4290000B8290000002310B59A4203D083
:10290000CC5CC4540133F9E710BD03008218934234
:1029100002D019700133FAE770470000090A0B0C66
:102920000D0E0000002C0042003000420034004236
:102930001B1C1C00000800100020000012131400D3
:1029400000080042000C0042001000420014004247
:1029500000180042001C0042561C0000521C0000DF
:10296000521C0000B01C0000B01C00006A1C0000DB
:102970005C1C0000701C00009E1C00003C1D000040
:102980001C1D00001C1D0000A81D00002E1D0000C5
:102990004A1D0000201D0000581D0000981D000069
:1029A000610000006C000000F8B5C046F8BC08BC2F
:1029B0009E467047DD000000F8B5C046F8BC08BC74
:0829C0009E467047B5000000BF
:0829C800D4FCFF7F01000000B8
:1029D00001000000000000000100000000000000F5
:0429E000650100008D
:0400000300002209CE
:00000001FF
